:100000000C9434000C9446000C9446000C9446006A
:100010000C9446000C9446000C9446000C94460048
:100020000C9446000C9446000C9446000C94460038
:100030000C9446000C9446000C9441010C9446002C
:100040000C9446000C9446000C9446000C94460018
:100050000C9446000C9446000C9446000C94460008
:100060000C9446000C94460011241FBECFEFD8E03C
:10007000DEBFCDBF21E0A0E0B1E001C01D92A43001
:10008000B207E1F70E942B010C946B010C94000065
:10009000813099F018F08230F9F0089525B181E0AF
:1000A00090E001C0880F6A95EAF7413011F4822B85
:1000B00002C08095822385B9089528B181E090E03F
:1000C00001C0880F6A95EAF7413011F4822B02C013
:1000D0008095822388B908952BB181E090E001C01A
:1000E000880F6A95EAF7413011F4822B02C080959F
:1000F00082238BB90895813099F018F08230F9F09D
:10010000089524B181E090E001C0880F6A95EAF774
:10011000413011F4822B02C08095822384B9089566
:1001200027B181E090E001C0880F6A95EAF741307D
:1001300011F4822B02C08095822387B908952AB1D9
:1001400081E090E001C0880F6A95EAF7413011F430
:10015000822B02C0809582238AB90895F894609119
:100160000001709101018091020190910301789446
:1001700008958F929F92AF92BF92CF92DF92EF92AB
:10018000FF926B017C010E94AE004B015C010E945A
:10019000AE00DC01CB0188199909AA09BB098C15AD
:1001A0009D05AE05BF0598F3FF90EF90DF90CF90CF
:1001B000BF90AF909F908F900895CF92DF92EF9273
:1001C000FF92CF93DF93C82FD62F69017A0141E0C8
:1001D0000E944800F694E794D794C794C701B601EB
:1001E0000E94B90040E06D2F8C2F0E944800C7018B
:1001F000B601DF91CF91FF90EF90DF90CF900C94FC
:10020000B900CF92DF92EF92FF920F931F93CF939B
:10021000DF93D82F162F69017A01C0E0C01741F093
:10022000A7019601612F8D2F0E94DD00CF5FF6CFD1
:10023000DF91CF911F910F91FF90EF90DF90CF90C2
:10024000089582E084BD93E095BD99EF97BD8093BA
:100250006E0078940895259A0E9421010FE028EC01
:1002600030E040E050E065E080E00E94010103E002
:1002700028EE33E040E050E065E080E00E940101BC
:10028000FFCF1F920F920FB60F9211248F939F935F
:10029000AF93BF938091000190910101A091020161
:1002A000B09103010196A11DB11D809300019093AF
:1002B0000101A0930201B0930301BF91AF919F91FF
:1002C0008F910F900FBE0F901F9018959695879560
:0A02D000779567950895F894FFCF25
:00000001FF
